:020000000000fe
:020001000019e4
:020002000032ca
:02000300004bb0
:02000400006496
:02000500007d7c
:02000600009662
:0200070000af48
:0200080000c82e
:0200090000e015
:02000a0000f9fb
:02000b000111e1
:02000c000129c8
:02000d000141af
:02000e00015996
:02000f0001707e
:02001000018766
:02001100019f4d
:0200120001b536
:0200130001cc1e
:0200140001e207
:0200150001f8f0
:02001600020ed8
:020017000223c2
:020018000238ac
:02001900024d96
:02001a00026181
:02001b0002756c
:02001c00028957
:02001d00029c43
:02001e0002af2f
:02001f0002c11c
:0200200002d309
:0200210002e5f6
:0200220002f6e4
:020023000307d1
:020024000317c0
:020025000326b0
:0200260003369f
:02002700034490
:02002800035380
:02002900036072
:02002a00036d64
:02002b00037a56
:02002c00038649
:02002d0003923c
:02002e00039d30
:02002f0003a725
:0200300003b11a
:0200310003ba10
:0200320003c306
:0200330003cbfd
:0200340003d3f4
:0200350003daec
:0200360003e0e5
:0200370003e6de
:0200380003ebd8
:0200390003f0d2
:02003a0003f4cd
:02003b0003f7c9
:02003c0003fac5
:02003d0003fcc2
:02003e0003febf
:02003f0003ffbd
:0200400003ffbc
:0200410003ffbb
:0200420003febb
:0200430003fcbc
:0200440003fabd
:0200450003f7bf
:0200460003f4c1
:0200470003f0c4
:0200480003ebc8
:0200490003e6cc
:02004a0003e0d1
:02004b0003dad6
:02004c0003d3dc
:02004d0003cbe3
:02004e0003c3ea
:02004f0003baf2
:0200500003b1fa
:0200510003a703
:02005200039d0c
:02005300039216
:02005400038621
:02005500037a2c
:02005600036d38
:02005700036044
:02005800035350
:0200590003445e
:02005a0003366b
:02005b0003267a
:02005c00031788
:02005d00030797
:02005e0002f6a8
:02005f0002e5b8
:0200600002d3c9
:0200610002c1da
:0200620002afeb
:02006300029cfd
:0200640002890f
:02006500027522
:02006600026135
:02006700024d48
:0200680002385c
:02006900022370
:02006a00020e84
:02006b0001f89a
:02006c0001e2af
:02006d0001ccc4
:02006e0001b5da
:02006f00019fef
:02007000018706
:0200710001701c
:02007200015932
:02007300014149
:02007400012960
:02007500011177
:0200760000f98f
:0200770000e0a7
:0200780000c8be
:0200790000afd6
:02007a000096ee
:02007b00007d06
:02007c0000641e
:02007d00004b36
:02007e0000324e
:02007f00001966
:0200800000007e
:0200810007e78f
:0200820007cea7
:0200830007b5bf
:02008400079cd7
:020085000783ef
:02008600076a07
:0200870007511f
:02008800073837
:0200890007204e
:02008a00070766
:02008b0006ef7e
:02008c0006d795
:02008d0006bfac
:02008e0006a7c3
:02008f000690d9
:020090000679ef
:02009100066106
:02009200064b1b
:02009300063431
:02009400061e46
:0200950006085b
:0200960005f271
:0200970005dd85
:0200980005c899
:0200990005b3ad
:02009a00059fc0
:02009b00058bd3
:02009c000577e6
:02009d000564f8
:02009e0005510a
:02009f00053f1b
:0200a000052d2c
:0200a100051b3d
:0200a200050a4d
:0200a30004f95e
:0200a40004e96d
:0200a50004da7b
:0200a60004ca8a
:0200a70004bc97
:0200a80004ada5
:0200a90004a0b1
:0200aa000493bd
:0200ab000486c9
:0200ac00047ad4
:0200ad00046edf
:0200ae000463e9
:0200af000459f2
:0200b000044ffb
:0200b100044603
:0200b200043d0b
:0200b300043512
:0200b400042d19
:0200b50004261f
:0200b600042024
:0200b700041a29
:0200b80004152d
:0200b900041031
:0200ba00040c34
:0200bb00040936
:0200bc00040638
:0200bd00040439
:0200be0004023a
:0200bf0004013a
:0200c000040139
:0200c100040138
:0200c200040236
:0200c300040433
:0200c400040630
:0200c50004092c
:0200c600040c28
:0200c700041023
:0200c80004151d
:0200c900041a17
:0200ca00042010
:0200cb00042609
:0200cc00042d01
:0200cd000435f8
:0200ce00043def
:0200cf000446e5
:0200d000044fdb
:0200d1000459d0
:0200d2000463c5
:0200d300046eb9
:0200d400047aac
:0200d50004869f
:0200d600049391
:0200d70004a083
:0200d80004ad75
:0200d90004bc65
:0200da0004ca56
:0200db0004da45
:0200dc0004e935
:0200dd0004f924
:0200de00050a11
:0200df00051bff
:0200e000052dec
:0200e100053fd9
:0200e2000551c6
:0200e3000564b2
:0200e40005779e
:0200e500058b89
:0200e600059f74
:0200e70005b35f
:0200e80005c849
:0200e90005dd33
:0200ea0005f21d
:0200eb00060805
:0200ec00061eee
:0200ed000634d7
:0200ee00064bbf
:0200ef000661a8
:0200f00006798f
:0200f100069077
:0200f20006a75f
:0200f30006bf46
:0200f40006d72d
:0200f50006ef14
:0200f6000707fa
:0200f7000720e0
:0200f8000738c7
:0200f9000751ad
:0200fa00076a93
:0200fb00078379
:0200fc00079c5f
:0200fd0007b545
:0200fe0007ce2b
:0200ff0007e711
:00000001FF
